:020000040000FA
:0400000053EF10F0BA
:100F0000000000000080DE280080C84D0000A776A9
:100F10000000349E008012C700809FEE00007E1704
:100F200001805C400180E9670100C890010055B86C
:100F3000011F1E1F1E1F1F1E1F1E1F1F1D474D545A
:100F4000000D0A54696D653A2564003A252E326415
:100F5000000044C0D9FF45C0DAFFDECFF6FFDDCF89
:100F6000F7FF000EF86E0800F550250AD8A4BBEF75
:100F700007F0BDEF07F02CEF09F044C0D9FF45C0E2
:100F8000DAFFDE2A000EDD22000E00018F6F000E58
:100F90008E6F8EC092F08FC093F09069916944C0BB
:100FA000D9FF45C0DAFFDECFF6FFDDCFF7FF000E39
:100FB000F86E0800F5502E0AD8A4E1EF07F0E3EF31
:100FC00007F084EF08F0000E916F000E906F44C0A0
:100FD000D9FF45C0DAFFDE2A000EDD2244C0D9FF6A
:100FE00045C0DAFFDECFF6FFDDCFF7FF000EF86E6B
:100FF0000800F5502A0AD8A400EF08F002EF08F024
:101000001FEF08F044C0D9FF45C0DAFFDE2A000E0A
:10101000DD2246C0D9FF47C0DAFFDFCF48F0020E1D
:10102000DE26DFCF49F0000EDD2248C0D9FF49C0DF
:10103000DAFFDECF90F0DDCF91F084EF08F044C00E
:10104000D9FF45C0DAFFDECF08F0DDCF09F0DDECD7
:101050000AF008C090F009C091F038EF08F044C0E1
:10106000D9FF45C0DAFFDE2A000EDD2238EF08F096
:10107000D00E486EFF0E496E44C0D9FF45C0DAFF5E
:10108000DECFF6FFDDCFF7FF000EF86E0800F5505B
:101090004A6E4B6A48504A2649504B224B500AE14F
:1010A0000A0E4A5CD8A057EF08F05AEF08F0010E7C
:1010B0005BEF08F0000E546E556A75EF08F044C0FF
:1010C000D9FF45C0DAFFDECFF6FFDDCFF7FF000E18
:1010D000F86E0800F550016E026A72EC10F001C063
:1010E00054F002C055F075EF08F054505510D8A4D4
:1010F0007CEF08F07EEF08F02FEF08F084EF08F0A7
:1011000084EF08F084EF08F044C0D9FF45C0DAFF4F
:10111000DECFF6FFDDCFF7FF000EF86E0800F550CA
:10112000640AD8B496EF08F098EF08F0AEEF08F034
:1011300044C0D9FF45C0DAFFDECFF6FFDDCFF7FFB1
:10114000000EF86E0800F550690AD8A4AAEF08F05E
:10115000ACEF08F0F0EF08F0AEEF08F044C0D9FFB4
:1011600045C0DAFFDE2A000EDD2246C0D9FF47C0A7
:10117000DAFFDFCF48F0020EDE26DFCF49F0000EA7
:10118000DD2248C0D9FF49C0DAFFDECF4CF0DDCF09
:101190004DF0000E4DBEFF0E4E6E4F6E506E516EF6
:1011A000526E536E42C01EF043C01FF04CC020F080
:1011B0004DC021F04EC022F04FC023F050C024F0AB
:1011C00051C025F052C026F053C027F04EEC09F074
:1011D0001EC042F01FC043F04DEF09F04DEF09F083
:1011E00044C0D9FF45C0DAFFDECFF6FFDDCFF7FF01
:1011F000000EF86E0800F550250AD8A402EF09F099
:1012000004EF09F01DEF09F044C0D9FF45C0DAFF33
:10121000DE2A000EDD22000E046E250E036E42C093
:1012200005F043C006F08EEC0EF0000E436E010E8A
:10123000426E4DEF09F04DEF09F044C0D9FF45C0B3
:10124000DAFFDE2A000EDD22000E436E000E426E33
:101250004DEF09F04DEF09F044C0D9FF45C0DAFF6A
:10126000DECFF6FFDDCFF7FF000EF86E0800F55079
:10127000036E046A42C005F043C006F08EEC0EF027
:1012800044C0D9FF45C0DAFFDE2A000EDD22000E81
:10129000436E010E426E4DEF09F0120020C038F08F
:1012A00021C039F022C03AF023C03BF024C03CF00A
:1012B00025C03DF026C03EF027C03FF03FBE63EFA3
:1012C00009F066EF09F0010E67EF09F0000E366EC7
:1012D000376A36503710D8B470EF09F072EF09F062
:1012E00084EF09F03F1E3E1E3D1E3C1E3B1E3A1E73
:1012F000391E386C000E39223A223B223C223D2214
:101300003E223F2284EF09F0000191BF8AEF09F0ED
:101310008CEF09F08FEF09F092938FEF09F091BFF6
:101320009CEF09F0915106E19005D8B09AEF09F0D1
:101330009CEF09F0A2EF09F0000E336E010E326E41
:10134000A6EF09F090C032F091C033F08EC034F0B7
:101350008FC035F036503710D8A4B1EF09F0B3EF95
:1013600009F0BCEF09F092A5B8EF09F0BAEF09F067
:10137000C1EF09F0BCEF09F03406D8A03506C1EF83
:1013800009F0000E416E1F0E406E950E4024D96E7E
:10139000000E4120DA6E000EDF6E4DEF0AF04006BF
:1013A000D8A04106950E4024D96E000E4120DA6E79
:1013B00038C001F039C002F03AC003F03BC004F07D
:1013C0003CC005F03DC006F03EC007F03FC008F04D
:1013D0000A0E096E000E0A6E000E0B6E000E0C6EE9
:1013E000000E0D6E000E0E6E000E0F6E000E106ED3
:1013F000CAEC0CF001C028F002C029F003C02AF0AA
:1014000004C02BF005C02CF006C02DF007C02EF054
:1014100008C02FF028C013F02AC014F031EC10F0EF
:101420001350300FDF6E3206D8A033063406D8A032
:10143000350638C001F039C002F03AC003F03BC0B5
:1014400004F03CC005F03DC006F03EC007F03FC0D0
:1014500008F00A0E096E000E0A6E000E0B6E000EEA
:101460000C6E000E0D6E000E0E6E000E0F6E000E56
:10147000106EF2EC0BF001C038F002C039F003C07E
:101480003AF004C03BF005C03CF006C03DF007C098
:101490003EF008C03FF04DEF0AF041BE58EF0AF0B1
:1014A000415008E14004D8A058EF0AF05AEF0AF082
:1014B00091EF0AF0385039103A103B103C103D10B3
:1014C0003E103F10D8A467EF0AF069EF0AF0CFEFA3
:1014D00009F033BE76EF0AF0335006E13204D8B09B
:1014E00074EF0AF076EF0AF0CFEF09F035BE81EF26
:1014F0000AF0355008E13404D8A081EF0AF083EFF8
:101500000AF091EF0AF0000192B389EF0AF08BEF35
:101510000AF0CFEF09F091EF0AF091EF0AF091EFA6
:101520000AF036503710D8A498EF0AF09AEF0AF074
:10153000A4EF0AF0000192A5A0EF0AF0A2EF0AF0D2
:10154000C6EF0AF0A4EF0AF04006D8A041063650D4
:101550003710D8A4AEEF0AF0B0EF0AF0B6EF0AF0F9
:10156000000E316E2B0E306EBCEF0AF0000E316EA5
:101570002D0E306EBCEF0AF0950E4024D96E000E91
:101580004120DA6E30C0DFFFC6EF0AF01EC013F054
:101590001FC014F0950E4024156E000E4120166EEB
:1015A00034C017F035C018F023EC0EF013C01EF055
:1015B00014C01FF0DCEF0AF01200000E166E000ED1
:1015C000156E000E0F6E000E0E6EEBEF0AF0084A5D
:1015D000092AEBEF0AF0010E146E08C0F6FF09C0ED
:1015E000F7FF000EF86E0800F550200AD8B4FBEFA4
:1015F0000AF0FDEF0AF01EEF0BF0F70E0A6EFF0E79
:101600000B6E08C0F6FF09C0F7FF000EF86E080069
:10161000F5500C6E0D6A0A500C260B500D220D5021
:1016200009E1050E0C5CD8A018EF0BF01AEF0BF0D7
:101630001EEF0BF0000E146E1EEF0BF014C010F036
:10164000116A35EF0BF008C0F6FF09C0F7FF000E76
:10165000F86E0800F550016E026A8DEC0FF001C0C3
:1016600010F002C011F035EF0BF010501110D8A49B
:101670003CEF0BF03EEF0BF0E7EF0AF04CEF0BF016
:101680004CEF0BF0000E0F6E010E0E6E48EF0BF0DC
:10169000084A092A94EF0BF008C0F6FF09C0F7FFCB
:1016A000000EF86E0800F5500A6E0B6A0B50000A27
:1016B000D8B45DEF0BF094EF0BF00A502B0AD8B4BE
:1016C00048EF0BF0060AD8B442EF0BF094EF0BF0A2
:1016D00094EF0BF0D00E0A6EFF0E0B6E08C0F6FFF3
:1016E00009C0F7FF000EF86E0800F5500C6E0D6A89
:1016F0000A500C260B500D220C1E0D1E0C4A0D2AF2
:1017000015C001F016C002F0000E046E0A0E036E42
:10171000AAEC10F00C500124156E0D500220166E2C
:10172000084A092A94EF0BF0D00E0A6EFF0E0B6EDA
:1017300008C0F6FF09C0F7FF000EF86E0800F5506C
:101740000C6E0D6A0A500C260B500D220D500AE14A
:101750000A0E0C5CD8A0AFEF0BF0B2EF0BF0010E4D
:10176000B3EF0BF0000E126E136AC9EF0BF008C056
:10177000F6FF09C0F7FF000EF86E0800F550016E85
:10178000026A72EC10F001C012F002C013F0C9EF4F
:101790000BF012501310D8A4D0EF0BF0D2EF0BF0D7
:1017A0006AEF0BF0D4EF0BF00E500F10D8A4DBEF64
:1017B0000BF0DDEF0BF0EBEF0BF015C00AF016C0ED
:1017C0000BF00A1E0B1E0A4A0B2A0AC008F00BC0B7
:1017D00009F0F1EF0BF015C008F016C009F0F1EFB9
:1017E0000BF01200000E126E10BEFBEF0BF0F9EFC3
:1017F0000BF00FEF0CF0101E0F1E0E1E0D1E0C1E18
:101800000B1E0A1E096C000E0A220B220C220D224E
:101810000E220F221022010E126E0FEF0CF008BEE6
:1018200016EF0CF014EF0CF02AEF0CF0081E071E58
:10183000061E051E041E031E021E016C000E02225F
:10184000032204220522062207220822010E121A70
:101850002AEF0CF020EE13F0070EDE6AE806FDE238
:1018600009500A100B100C100D100E100F10101054
:10187000D8B43DEF0CF03FEF0CF09DEF0CF0010EF3
:10188000116E4FEF0CF0D89009360A360B360C3635
:101890000D360E360F361036112A4FEF0CF010AE03
:1018A00054EF0CF056EF0CF043EF0CF05AEF0CF045
:1018B0005AEF0CF0D8901336143615361636173604
:1018C000183619361A360950015C0A5002580B5066
:1018D00003580C5004580D5005580E5006580F5020
:1018E000075810500858D8A078EF0CF07AEF0CF099
:1018F0008DEF0CF00950015E0A50025A0B50035A4A
:101900000C50045A0D50055A0E50065A0F50075AE3
:101910001050085A13808DEF0CF0D89010320F320F
:101920000E320D320C320B320A320932112E5AEFBE
:101930000CF09DEF0CF09DEF0CF01250D8B4A3EF1B
:101940000CF0A5EF0CF0B7EF0CF01A1E191E181EC4
:10195000171E161E151E141E136C000E14221522BF
:1019600016221722182219221A22B7EF0CF013C0E0
:1019700001F014C002F015C003F016C004F017C047
:1019800005F018C006F019C007F01AC008F0C9EF3A
:101990000CF01200000E126E08BED3EF0CF0D1EF67
:1019A0000CF0E7EF0CF0081E071E061E051E041EB5
:1019B000031E021E016C000E0222032204220522D5
:1019C000062207220822010E126EE7EF0CF010BE6D
:1019D000EEEF0CF0ECEF0CF000EF0DF0101E0F1E10
:1019E0000E1E0D1E0C1E0B1E0A1E096C000E0A2276
:1019F0000B220C220D220E220F22102200EF0DF0DE
:101A000009500A100B100C100D100E100F101010B2
:101A1000D8B40DEF0DF00FEF0DF063EF0DF0010EE8
:101A2000116E1FEF0DF0D89009360A360B360C36C2
:101A30000D360E360F361036112A1FEF0DF010AE90
:101A400024EF0DF026EF0DF013EF0DF02AEF0DF05F
:101A50002AEF0DF00950015C0A5002580B50035850
:101A60000C5004580D5005580E5006580F5007588A
:101A700010500858D8A03FEF0DF041EF0DF053EF94
:101A80000DF00950015E0A50025A0B50035A0C50D7
:101A9000045A0D50055A0E50065A0F50075A10504E
:101AA000085A53EF0DF0D89010320F320E320D322B
:101AB0000C320B320A320932112E2AEF0DF063EF8D
:101AC0000DF063EF0DF01250D8B469EF0DF06BEF2D
:101AD0000DF07DEF0DF0081E071E061E051E041EEC
:101AE000031E021E016C000E0222032204220522A4
:101AF0000622072208227DEF0DF001C001F002C08E
:101B000002F003C003F004C004F005C005F006C0F5
:101B100006F007C007F008C008F08FEF0DF01200C4
:101B20000F013FA996EF0DF098EF0DF09CEF0DF02F
:101B300022EF0EF022EF0EF0550EA76EAA0EA76E42
:101B40003F8B030E3F133ACF09F03BCF08F009500B
:101B5000BFEC10F0066E076A20EE0AF00450D9269A
:101B60000550DA2206C0DEFF07C0DDFF3ACF09F0DC
:101B70003BCF08F00850BFEC10F0066E076A20EE6D
:101B800008F00450D9260550DA2206C0DEFF07C04F
:101B9000DDFF0950BFEC10F0066E076A20EE06F07C
:101BA0000450D9260550DA2206C0DEFF07C0DDFF4B
:101BB0003ACF09F03BCF08F00850BFEC10F0066EAA
:101BC000076A20EE0CF00450D9260550DA2206C030
:101BD000DEFF07C0DDFF0950BFEC10F0066E076A9C
:101BE00020EE04F00450D9260550DA2206C0DEFFAC
:101BF00007C0DDFF3ACF09F03BCF08F00850BFEC3B
:101C000010F0066E076A20EE02F00450D926055047
:101C1000DA2206C0DEFF07C0DDFF0950BFEC10F07E
:101C2000066E076A04C0D9FF05C0DAFF06C0DEFFF2
:101C300007C0DDFF550EA76EAA0EA76E0F013F9BD2
:101C400022EF0EF01200000192A129EF0EF02BEF0F
:101C50000EF037EF0EF015C00CF016C00DF013C0EB
:101C60000EF014C00FF00BEC10F037EF0EF018BEB2
:101C70003CEF0EF03EEF0EF044EF0EF017C01CF0FC
:101C800018C01DF048EF0EF0000E1D6E000E1C6E09
:101C9000000E1B6E000E1A6E5CEF0EF0000E046E4E
:101CA000200E036E13C005F014C006F08EEC0EF08B
:101CB0001A4A1B2A5CEF0EF01C501A5C1B50800A5B
:101CC000196E1D50800A1958D8A069EF0EF06BEFFD
:101CD0000EF04EEF0EF0000192B171EF0EF073EFC7
:101CE0000EF07FEF0EF015C00CF016C00DF013C013
:101CF0000EF014C00FF00BEC10F07FEF0EF015C0DB
:101D000001F016C002F0BAEC0FF01C500124136E63
:101D10001D500220146E8DEF0EF0120005500610BB
:101D2000D8B495EF0EF097EF0EF0A2EF0EF005503D
:101D30000610D8A49EEF0EF0A0EF0EF0A7EF0EF065
:101D4000A2EF0EF00350FCEC10F0E2EF0EF020EEEC
:101D500004F00550D9260650DA22DE50DE10D8B441
:101D6000B4EF0EF0B6EF0EF0D3EF0EF020EE04F06D
:101D70000550D9260650DA2210EE02F00550E12671
:101D80000650E222DE50E65CE650800A0B6EDE5022
:101D9000800A0B58D8B0CFEF0EF0D1EF0EF0E2EF83
:101DA0000EF0D3EF0EF020EE02F00550D9260650CB
:101DB000DA22DE2A000EDD22E2EF0EF0E2EF0EF074
:101DC000E2EF0EF01200F3EC10F0E7EF0EF0DF0E92
:101DD000046E000E056E90EC0DF0410E0001D76F01
:101DE0000F0ED86FE3C0D9F0E4C0DAF090EC10F039
:101DF0004B0E0001D76F0F0ED86FE1C0D9F0E2C0D3
:101E0000DAF090EC10F04B0E0001D76F0F0ED86F88
:101E1000DFC0D9F0E0C0DAF090EC10F0020E5F6E97
:101E2000450E5E6EAA0EE82EFED75E2EFCD75F2E04
:101E3000FAD7E7EF0EF0E7EF0EF000EF00F0550EE7
:101E4000A76EAA0EA76E0F013F8B3F9F01EC11F00A
:101E50000009D8A42EEF0FF030EF0FF048EF0FF08D
:101E6000030E0F013F13180E3A6F000E3B6F160E54
:101E70003A6F090E3B6F220E3A6F000E3B6F270E32
:101E80003A6F180E3B6F010E0001946F48EF0FF090
:101E9000010E0F013C6F040E3C6F000E3E6F000EF2
:101EA000466F3F8F550EA76EAA0EA76E3F9B12007E
:101EB00058C05CF059C05DF0000E00018D6F000E3F
:101EC0008C6F78EF0FF056C042F057C043F05C0EB5
:101ED000446E000E456E5AC046F05BC047F0A9EC58
:101EE00007F0425000018C2743508D2378EF0FF00C
:101EF0005CC0F6FF5DC0F7FF000EF86E0800F550FD
:101F00000009D8A486EF0FF088EF0FF063EF0FF011
:101F10008CC056F08DC057F01200010E076E200ED7
:101F200001180210D8B497EF0FF099EF0FF0B4EF4B
:101F30000FF0F70E036EFF0E046E01C005F002C035
:101F400006F00350052604500622065009E1050E4E
:101F5000055CD8A0AEEF0FF0B0EF0FF0B4EF0FF0CC
:101F6000000E076EB4EF0FF007C001F0026AB9EF80
:101F70000FF0120001C005F002C006F0C4EF0FF030
:101F8000014A022AC4EF0FF001C0D9FF02C0DAFFF4
:101F9000DF50D8A4CEEF0FF0D0EF0FF0C0EF0FF06E
:101FA000D2EF0FF005C003F006C004F0031E041EBC
:101FB000034A042A01500324016E02500420026ED9
:101FC000E2EF0FF01200000E8D6E000E8C6E000E10
:101FD000896E000E8A6E000E8B6EC70E966EEE0E28
:101FE000926EFD0E936EC70E946EBF0E956E010E2F
:101FF0000F01486F000E496FF18E968E968C000E81
:10200000426F000E416F000E406F180E0E01F76F09
:10201000060ED76F1200000E126E000E116E1EEF2C
:1020200010F010C003F0046A0EC005F00FC006F0F7
:102030008EEC0EF0114A122A1EEF10F011500C24F3
:10204000D96E12500D20DA6EDF50106E1050D8A4E9
:102050002CEF10F02EEF10F011EF10F030EF10F029
:10206000120014BE3EEF10F0145006E11304D8B075
:102070003CEF10F03EEF10F04CEF10F013C015F0F5
:1020800014C016F0151E161E154A162A15C013F098
:1020900016C014F052EF10F013C013F014C014F077
:1020A00052EF10F012000C0EF66E220EF76E000EBC
:1020B000F86E00EEF7F010EE04F00900F5CFEEFF39
:1020C000E550E150FAE101EE00F0380EEE6AE80664
:1020D000FDE100EE60F0770EEE6AE806FDE100013A
:1020E000E3EF0EF0D00E036EFF0E046E01C005F09C
:1020F00002C006F0035005260450062206500AE1ED
:102100000A0E055CD8A087EF10F08AEF10F0010EE0
:102110008BEF10F0000E016E026A8FEF10F01200CC
:10212000D90E0001DD6F000EDE6F000E566E000E40
:10213000576ED7C058F0D8C059F0DD0E5A6E000E59
:102140005B6E58EC0FF056C0DBF057C0DCF0A9EF27
:1021500010F0120001500302F3CF05F0F4CF06F0A7
:1021600001500402F350062602500302F3500626E3
:1021700005C001F006C002F0BEEF10F01200036EC1
:1021800003C001F00F0E011603380F0B0F0B0A0DE1
:10219000F3500124026E0250CEEF10F01200016ED7
:1021A000D2EF10F0A4A8D7EF10F0D9EF10F0D2EFD3
:1021B00010F0DBEF10F001C0A9FF1200080E7C6EDA
:1021C000900E9C6E240EA86E190EAB6E000E7D6EE6
:1021D0001200430ED36E000E9B6E000E0F013D6F7A
:1021E000140E876E1200E3EC0FF0E9EC10F01FEC18
:1021F0000FF0DEEC10F01200026E0250CFEC10F087
:1022000012000001945105EF11F0120020000001AE
:020000040001F9
:08FFF800AEF7F0FFFDFBFFFB7B
:00000001FF
